:1000000019C10000EDC100001CC200004BC200007D
:100010007AC20000A9C20000D8C2000007C30000D5
:1000200036C3000038C1000036C1000034C10000F2
:1000300032C100000C94C3092EC100002CC1000085
:100040002AC1000028C1000026C1000024C1000010
:1000500022C1000020C100001EC1000049C30000F1
:100060001AC10000D0C5000004C6000014C1000081
:1000700012C1000010C100000EC100000CC1000040
:100080000AC1000008C1000006C1000004C1000050
:100090005CC6000090C60000FEC00000FCC000006E
:1000A000FAC00000F8C00000F6C00000F4C0000074
:1000B000F2C00000F0C00000EEC00000ECC0000084
:1000C000EAC00000E8C00000E6C00000E0C6000092
:1000D00014C70000E0C000007CC70000B0C70000EB
:1000E000DAC000005F046204510455045B04990403
:1000F00066046A047004740478047E04820486042E
:1001000099048C049004940400000A0B02090C0D5D
:100110000E080703040100000000000000000000BA
:1001200000000000000000000000000000000000CF
:10013000000000001211100000000000000000008C
:1001400000000000000000000000000000000102AC
:1001500010202008081020401020408002010201D9
:100160000804020101020408102040808040201091
:1001700008040201800402018040201008040201EA
:100180000804020101020408102040800102040852
:10019000102040800505050507050808080802022B
:1001A00002020A0A08080404040401010101010111
:1001B00001010303030303030303040707070C0CF4
:1001C0000C0C0C0C0C0C02020202060606060606BB
:1001D00006060B0B0B0B0B0B0B0B00002000230078
:1001E000260029002C002F0032000001000003012E
:1001F0000601090100002200250028002B002E0026
:100200003100340002010000050108010B0100006B
:100210002100240027002A002D00300033000101B6
:100220000000040107010A01020062060407A60794
:100230004808C20811241FBECFEFD1E2DEBFCDBFF8
:1002400000E00CBF12E0A0E0B2E0E0E4F8E100E082
:100250000BBF02C007900D92AC33B107D9F724E071
:10026000ACE3B2E001C01D92A93EB207E1F712E093
:10027000C4E3D2E000E006C022970109FE010BBFF3
:100280000E941A0CCA32D10780E00807A9F70E9421
:10029000730A0C941E0CB4CE4F925F926F927F92B1
:1002A0008F929F92AF92BF92CF92DF92EF92FF9286
:1002B00080911E02ADD38091E404811172C08090C0
:1002C000E5049090E604A090E704B090E804C5012E
:1002D000B4010E943E0B2B013C012091160230918B
:1002E000170240911802509119020E940C0B87FFCF
:1002F0000BC0B7FC09C0C0900E02D0900F02E09076
:100300001002F090110203C0C12CD12C760120E024
:1003100030E040E85FE36091120270911302809137
:100320001402909115020E94A70A9B01AC01C3011F
:10033000B2010E94EE0B87FD09C01092E5041092F5
:10034000E6041092E7041092E8040DC08FEF881ABB
:10035000980AA80AB80A8092E5049092E604A0924E
:10036000E704B092E80420E030E040E853E4C7013D
:10037000B6010E940C0B87FF0EC020E030E0A901FF
:10038000C701B6010E94EE0B87FD07C0C701B60189
:100390000E94100B03C06FEF01C060E080910A0261
:1003A00002D38091E4048F5F853018F48093E404D5
:1003B00002C01092E404FF90EF90DF90CF90BF90C6
:1003C000AF909F908F907F906F905F904F90089527
:1003D00060E080911E02AED261E080910A02AAC262
:1003E0001F920F920FB60F9211240BB60F922F93FC
:1003F0003F934F935F936F937F938F939F93AF93AD
:10040000BF93EF93FF938091400290914102892B1B
:1004100029F0E0914002F09141021995FF91EF918E
:10042000BF91AF919F918F917F916F915F914F910C
:100430003F912F910F900BBE0F900FBE0F901F900A
:1004400018951F920F920FB60F9211240BB60F92B0
:100450002F933F934F935F936F937F938F939F93CC
:10046000AF93BF93EF93FF93809142029091430229
:10047000892B29F0E0914202F09143021995FF91F6
:10048000EF91BF91AF919F918F917F916F915F910C
:100490004F913F912F910F900BBE0F900FBE0F9079
:1004A0001F9018951F920F920FB60F9211240BB642
:1004B0000F922F933F934F935F936F937F938F93FD
:1004C0009F93AF93BF93EF93FF93809144029091DA
:1004D0004502892B29F0E0914402F09145021995DB
:1004E000FF91EF91BF91AF919F918F917F916F910C
:1004F0005F914F913F912F910F900BBE0F900FBEC8
:100500000F901F9018951F920F920FB60F92112403
:100510000BB60F922F933F934F935F936F937F93FD
:100520008F939F93AF93BF93EF93FF938091460276
:1005300090914702892B29F0E0914602F091470201
:100540001995FF91EF91BF91AF919F918F917F91FD
:100550006F915F914F913F912F910F900BBE0F9034
:100560000FBE0F901F9018951F920F920FB60F920B
:1005700011240BB60F922F933F934F935F936F937A
:100580007F938F939F93AF93BF93EF93FF9380914C
:100590003C0290913D02892B29F0E0913C02F091C0
:1005A0003D021995FF91EF91BF91AF919F918F916E
:1005B0007F916F915F914F913F912F910F900BBE63
:1005C0000F900FBE0F901F9018951F920F920FB6AD
:1005D0000F9211240BB60F922F933F934F935F937B
:1005E0006F937F938F939F93AF93BF93EF93FF93FB
:1005F00080913E0290913F02892B29F0E0913E02CA
:10060000F0913F021995FF91EF91BF91AF919F91AA
:100610008F917F916F915F914F913F912F910F90AB
:100620000BBE0F900FBE0F901F9018951F920F9248
:100630000FB60F9211240BB60F922F933F934F9347
:100640005F936F937F938F939F93AF93BF93EF933A
:10065000FF938091480290914902892B29F0E09103
:100660004802F09149021995FF91EF91BF91AF9126
:100670009F918F917F916F915F914F913F912F91BA
:100680000F900BBE0F900FBE0F901F9018951F92EA
:100690000F920FB60F9211240BB60F922F933F9328
:1006A0004F935F936F937F938F939F93AF93BF937A
:1006B000EF93FF9380914A0290914B02892B29F08E
:1006C000E0914A02F0914B021995FF91EF91BF9191
:1006D000AF919F918F917F916F915F914F913F91DA
:1006E0002F910F900BBE0F900FBE0F901F9018957B
:1006F0001F920F920FB60F9211242F933F938F9357
:100700009F93AF93BF9380914D0290914E02A09121
:100710004F02B091500230914C0223E0230F2D374D
:1007200020F40196A11DB11D05C026E8230F0296F5
:10073000A11DB11D20934C0280934D0290934E0257
:10074000A0934F02B09350028091510290915202B7
:10075000A0915302B09154020196A11DB11D809346
:10076000510290935202A0935302B0935402BF914E
:10077000AF919F918F913F912F910F900FBE0F904E
:100780001F9018953FB7F8948091510290915202B2
:10079000A0915302B091540226B5A89B05C02F3FEB
:1007A00019F00196A11DB11D3FBF6627782F892F33
:1007B0009A2F620F711D811D911D42E0660F771FF8
:1007C000881F991F4A95D1F70895789484B582605F
:1007D00084BD84B5816084BD85B5826085BD85B5E5
:1007E000816085BDEEE6F0E0808181608083E1E894
:1007F000F0E01082808182608083808181608083CC
:10080000E0E8F0E0808181608083E1EBF0E08081CE
:1008100084608083E0EBF0E0808181608083E1E9A7
:10082000F0E0808182608083808181608083E0E964
:10083000F0E0808181608083E1EAF0E08081826085
:100840008083808181608083E0EAF0E08081816044
:100850008083E1E2F1E08081826080838081816039
:100860008083E0E2F1E0808181608083EAE7F0E06C
:1008700080818460808380818260808380818160C8
:1008800080838081806880831092C100089590E009
:10089000FC013197E231F10508F04BC0EE58FF4FF3
:1008A000C3C7809180008F7703C0809180008F7DC7
:1008B00080938000089580918000877FF9CF84B570
:1008C0008F7702C084B58F7D84BD08958091B0007C
:1008D0008F7703C08091B0008F7D8093B000089522
:1008E000809190008F7707C0809190008F7D03C02A
:1008F00080919000877F8093900008958091A00060
:100900008F7707C08091A0008F7D03C08091A000E9
:10091000877F8093A0000895809120018F7707C082
:10092000809120018F7D03C080912001877F80937B
:1009300020010895CF93DF9390E0FC01E25BFE4F2E
:100940002491FC01EC56FE4F8491882349F190E0FC
:10095000880F991FFC01E25FFD4FA591B4918C5067
:100960009E4FFC01C591D4919FB7611108C0F894C6
:100970008C91209582238C93888182230AC06230D7
:1009800051F4F8948C91322F309583238C93888185
:10099000822B888304C0F8948C91822B8C939FBF08
:1009A000DF91CF9108950F931F93CF93DF931F9201
:1009B000CDB7DEB7282F30E0F901E85FFE4F849114
:1009C000F901E25BFE4F1491F901EC56FE4F0491E0
:1009D0000023C1F0882319F0698359DF6981E02F72
:1009E000F0E0EE0FFF1FEC50FE4FA591B4919FB7C2
:1009F000F8948C91611103C01095812301C0812B63
:100A00008C939FBF0F90DF91CF911F910F9108950D
:100A1000CF93DF93282F30E0F901E85FFE4F8491F8
:100A2000F901E25BFE4FD491F901EC56FE4FC491FF
:100A3000CC2389F081112BDFEC2FF0E0EE0FFF1FAC
:100A4000E652FE4FA591B4912C912D2381E090E0C8
:100A500021F480E002C080E090E0DF91CF91089522
:100A6000FC01818D228D90E0805C9F4F821B91095B
:100A70008F7399270895FC01918D828D981731F01D
:100A8000828DE80FF11D858D90E008958FEF9FEF27
:100A90000895FC01918D828D981761F0828DDF01A0
:100AA000A80FB11D5D968C91928D9F5F9F73928F61
:100AB00090E008958FEF9FEF0895FC01848DDF0192
:100AC000A80FB11DA35ABF4F2C91848D90E00196C1
:100AD0008F739927848FA689B7892C93A089B189B0
:100AE0008C9180648C93938D848D981306C00288BA
:100AF000F389E02D80818F7D80830895CF93DF93EC
:100B0000EC01888D8823C1F0EA89FB89808185FD0D
:100B100005C0A889B9898C9186FD0EC00FB607FC67
:100B2000F5CF808185FFF2CFA889B9898C9185FFA7
:100B3000EDCFCE01C2DFE8CFDF91CF910895CF9204
:100B4000DF92FF920F931F93CF93DF931F92CDB746
:100B5000DEB76C01DC015B969C915B975C968C9197
:100B60005C97981307C05096ED91FC915197808146
:100B700085FD31C0F601038D10E00F5F1F4F0F732D
:100B80001127F02EF601848DF81210C00FB607FC65
:100B9000F9CFD6015096ED91FC915197808185FF58
:100BA000F1CFC601698389DF6981ECCF838DE80FBE
:100BB000F11DE35AFF4F6083D6015B960C935B9760
:100BC0005296ED91FC91539780818062808381E001
:100BD00058968C930DC0D6015696ED91FC9157977F
:100BE00060835096ED91FC91519780818064808361
:100BF00081E090E00F90DF91CF911F910F91FF90D6
:100C0000DF90CF9008951F920F920FB60F9211248C
:100C10000BB60F922F938F939F93EF93FF93E091D7
:100C20006502F09166028081E0916B02F0916C02A6
:100C300082FD12C0908180916E028F5F8F73209130
:100C40006F02821751F0E0916E02F0E0EB5AFD4F17
:100C5000958F80936E0201C08081FF91EF919F91EB
:100C60008F912F910F900BBE0F900FBE0F901F9082
:100C700018951F920F920FB60F9211240BB60F9278
:100C80002F933F934F935F936F937F938F939F9394
:100C9000AF93BF93EF93FF9385E592E00EDFFF9153
:100CA000EF91BF91AF919F918F917F916F915F91E4
:100CB0004F913F912F910F900BBE0F900FBE0F9051
:100CC0001F901895109258021092570288EE93E0E8
:100CD000A0E0B0E08093590290935A02A0935B0287
:100CE000B0935C0289E292E09093560280935502A1
:100CF00085EC90E0909362028093610284EC90E036
:100D0000909364028093630280EC90E0909366027B
:100D10008093650281EC90E0909368028093670273
:100D200082EC90E090936A028093690286EC90E0F6
:100D300090936C0280936B0210926E0210926F027D
:100D4000109270021092710208951F920F920FB6C6
:100D50000F9211240BB60F922F938F939F93EF93C3
:100D6000FF93E0910203F09103038081E091080377
:100D7000F091090382FD12C0908180910B038F5F77
:100D80008F7320910C03821751F0E0910B03F0E078
:100D9000EE50FD4F958F80930B0301C08081FF9132
:100DA000EF919F918F912F910F900BBE0F900FBEDF
:100DB0000F901F9018951F920F920FB60F9211244B
:100DC0000BB60F922F933F934F935F936F937F9345
:100DD0008F939F93AF93BF93EF93FF9382EF92E034
:100DE0006CDEFF91EF91BF91AF919F918F917F91B9
:100DF0006F915F914F913F912F910F900BBE0F908C
:100E00000FBE0F901F9018951092F5021092F402E9
:100E100088EE93E0A0E0B0E08093F6029093F702B2
:100E2000A093F802B093F90289E292E09093F30262
:100E30008093F2028DEC90E09093FF028093FE028B
:100E40008CEC90E0909301038093000388EC90E099
:100E5000909303038093020389EC90E09093050341
:100E6000809304038AEC90E0909307038093060339
:100E70008EEC90E0909309038093080310920B038B
:100E800010920C0310920D0310920E0308951F92FE
:100E90000F920FB60F9211240BB60F922F938F93D0
:100EA0009F93EF93FF93E0919F03F091A0038081C4
:100EB000E091A503F091A60382FD12C0908180917C
:100EC000A8038F5F8F732091A903821751F0E091DF
:100ED000A803F0E0E157FC4F958F8093A80301C071
:100EE0008081FF91EF919F918F912F910F900BBE79
:100EF0000F900FBE0F901F9018951F920F920FB674
:100F00000F9211240BB60F922F933F934F935F9341
:100F10006F937F938F939F93AF93BF93EF93FF93C1
:100F20008FE893E0CADDFF91EF91BF91AF919F9160
:100F30008F917F916F915F914F913F912F910F9082
:100F40000BBE0F900FBE0F901F901895109292033A
:100F50001092910388EE93E0A0E0B0E080939303B9
:100F600090939403A0939503B093960389E292E043
:100F70009093900380938F0385ED90E090939C0372
:100F800080939B0384ED90E090939E0380939D0358
:100F900080ED90E09093A00380939F0381ED90E01B
:100FA0009093A2038093A10382ED90E09093A40319
:100FB0008093A30386ED90E09093A6038093A5030E
:100FC0001092A8031092A9031092AA031092AB03E7
:100FD00008951F920F920FB60F9211240BB60F9225
:100FE0002F938F939F93EF93FF93E0913C04F091A5
:100FF0003D048081E0914204F091430482FD12C0DF
:101000009081809145048F5F8F73209146048217F1
:1010100051F0E0914504F0E0E45DFB4F958F809343
:10102000450401C08081FF91EF919F918F912F9195
:101030000F900BBE0F900FBE0F901F9018951F9230
:101040000F920FB60F9211240BB60F922F933F936E
:101050004F935F936F937F938F939F93AF93BF93C0
:10106000EF93FF938CE294E028DDFF91EF91BF9125
:10107000AF919F918F917F916F915F914F913F9130
:101080002F910F900BBE0F900FBE0F901F901895D1
:1010900010922F0410922E0488EE93E0A0E0B0E0AE
:1010A0008093300490933104A0933204B0933304BE
:1010B00089E292E090932D0480932C0485E391E0E3
:1010C000909339048093380484E391E090933B0437
:1010D00080933A0480E391E090933D0480933C0434
:1010E00081E391E090933F0480933E0482E391E09A
:1010F000909341048093400486E391E090934304ED
:1011000080934204109245041092460410924704C2
:10111000109248040895AF92BF92CF92DF92EF925F
:10112000FF920F931F93CF93DF936C017B01C0E07D
:10113000D0E000E010E0F601EC0FFD1F4AE050E0C7
:101140006281C701D6D05C016EE2C70168D08A0D0A
:101150009B1D080F191F2196C330D10561F74AE086
:1011600050E0F6016581C701C4D0800F911FDF9167
:10117000CF911F910F91FF90EF90DF90CF90BF9094
:10118000AF90089589E392E09093CA048093C904D4
:101190001092CB041092CC041092CD041092CE0485
:1011A0000895CF92DF92EF92FF920F931F93CF9308
:1011B000DF936C017A01EB01E60EF71E00E010E010
:1011C000CE15DF0561F06991D601ED91FC9101909A
:1011D000F081E02DC6011995080F191FF1CFC80144
:1011E000DF91CF911F910F91FF90EF90DF90CF9003
:1011F00008956115710581F0DB010D900020E9F77C
:10120000AD0141505109461B570BDC01ED91FC919A
:101210000280F381E02D199480E090E00895DC01D4
:10122000ED91FC910190F081E02D19948F929F92A5
:10123000AF92BF92CF92DF92EF92FF920F931F93E4
:10124000CF93DF93CDB7DEB7A1970FB6F894DEBF8B
:101250000FBECDBF7C01C42EE52FCB01D22E19A22B
:1012600021E02D1510F02AE0D22E8E010F5D1F4FC8
:101270008D2C912CA12CB12C6C2D7E2FA5019401CD
:10128000B1D28C2DD29E80191124015011098A30BF
:1012900014F4805D01C0895CF8018083211531055B
:1012A0004105510521F0C22EE32FCA01E5CFB80157
:1012B000C7019FDFA1960FB6F894DEBF0FBECDBF6A
:1012C000DF91CF911F910F91FF90EF90DF90CF9022
:1012D000BF90AF909F908F9008952115310541F4F4
:1012E000DC01ED91FC910190F081E02D642F1994C7
:1012F0009DCF9A01462F50E060E070E0EECF823043
:10130000A9F028F4882349F0813051F00895843001
:1013100009F1E8F0853009F1089510926E00089502
:1013200080916F008D7F80936F0008958091700091
:101330008D7F8093700081E08093B0008091B10038
:10134000887F84608093B1001092B300089510925A
:10135000710008951092720008951092730008951C
:10136000CF93C82F809122028C1307C0E8E2F2E0ED
:1013700084919FEF9093220201C08FEFC0DF60E065
:101380008C2FCF9110CB1F920F920FB60F9211247A
:101390000BB60F922F933F934F935F936F937F936F
:1013A0008F939F93AF93BF93EF93FF938091D2045A
:1013B0009091D304A091D404B091D504892B8A2BA9
:1013C0008B2B51F19091CF04E091D004F091D10496
:1013D0008081892780838091D2049091D304A09149
:1013E000D404B091D504181619061A061B06BCF4CD
:1013F0008091D2049091D304A091D404B091D504EB
:101400000197A109B1098093D2049093D304A093CA
:10141000D404B093D50403C080912202A1DFFF91D0
:10142000EF91BF91AF919F918F917F916F915F915C
:101430004F913F912F910F900BBE0F900FBE0F90C9
:101440001F90189508950895CF92DF92EF92FF9222
:101450000F931F9397D96093D6047093D70480930A
:10146000D8049093D9040091DA041091DB04209100
:10147000DC043091DD046B017C01C01AD10AE20A60
:10148000F30A40E4C41642E4D4064FE0E406F10453
:1014900048F06093DA047093DB048093DC0490934B
:1014A000DD0408D081E01F910F91FF90EF90DF9055
:1014B000CF9008952091DE0481E0820F8093DE04B6
:1014C000222349F081E090E09093E0048093DF04D0
:1014D0002093DE0408950E944C018091DE04815027
:1014E0008093DE0408950F931F93CF93DF931F9291
:1014F000CDB7DEB781E0898368D9A4DF00912302EC
:1015000010912402F801118210820E94E8019BDFF1
:1015100021E0F80180819181892B09F020E0298365
:1015200078948981882351F08FDF21E0F801808150
:101530009181892B09F020E02983F3CFF89480E092
:1015400090E00F90DF91CF911F910F910895505827
:10155000BB27AA270ED008C1F9D030F0FED020F06A
:1015600031F49F3F11F41EF4EEC00EF4E095E7FB5A
:10157000E4C0E92F0AD180F3BA1762077307840722
:10158000950718F071F49EF522C10EF4E0950B2E2C
:10159000BA2FA02D0B01B90190010C01CA01A001C5
:1015A0001124FF27591B99F0593F50F4503E68F120
:1015B0001A16F040A22F232F342F4427585FF3CF61
:1015C000469537952795A795F0405395C9F77EF432
:1015D0001F16BA0B620B730B840BBAF09150A1F07B
:1015E000FF0FBB1F661F771F881FC2F70EC0BA0F01
:1015F000621F731F841F48F4879577956795B79589
:10160000F7959E3F08F0B3CF9395880F08F0992780
:10161000EE0F9795879508956CD008F481E00895B2
:10162000BCD088F09F5790F0B92F9927B751A0F000
:10163000D1F0660F771F881F991F1AF0BA95C9F766
:1016400012C0B13081F0C3D0B1E00895C0C0672F9F
:10165000782F8827B85F39F0B93FCCF38695779516
:101660006795B395D9F73EF49095809570956195FF
:101670007F4F8F4F9F4F0895E89409C097FB3EF42A
:1016800090958095709561957F4F8F4F9F4F9923CF
:10169000A9F0F92F96E9BB279395F695879577954D
:1016A0006795B795F111F8CFFAF4BB0F11F460FF0D
:1016B0001BC06F5F7F4F8F4F9F4F16C0882311F065
:1016C00096E911C0772321F09EE8872F762F05C079
:1016D000662371F096E8862F70E060E02AF09A9514
:1016E000660F771F881FDAF7880F9695879597F909
:1016F0000895990F0008550FAA0BE0E8FEEF1616A3
:101700001706E807F907C0F012161306E407F507F5
:1017100098F0621B730B840B950B39F40A2661F069
:10172000232B242B252B21F408950A2609F4A1400C
:10173000A6958FEF811D811D089597F99F6780E819
:1017400070E060E008959FEF80EC089500240A9413
:101750001616170618060906089500240A9412168C
:101760001306140605060895092E0394000C11F4BF
:10177000882352F0BB0F40F4BF2B11F460FF04C06C
:101780006F5F7F4F8F4F9F4F089557FD9058440FC5
:10179000551F59F05F3F71F04795880F97FB991FD0
:1017A00061F09F3F79F0879508951216130614068D
:1017B000551FF2CF4695F1DF08C01616170618061A
:1017C000991FF1CF86957105610508940895E894F5
:1017D000BB2766277727CB0197F908958ADF08F49E
:1017E0008FEF0895A1E21A2EAA1BBB1BFD010DC0AD
:1017F000AA1FBB1FEE1FFF1FA217B307E407F507C1
:1018000020F0A21BB30BE40BF50B661F771F881F9C
:10181000991F1A9469F760957095809590959B0132
:10182000AC01BD01CF010895EE0FFF1F0590F491AB
:10183000E02D19940790F691E02D1994F894FFCFBC
:101840000000E9048000010000000D00000000001D
:10185000803F000000400000803F000000000800C2
:101860000000FFE104000000009F05D10830054999
:0C187000053B057E05000000008B080011
:00000001FF
